:100000000C942A000C9434000C9434000C943400AA
:100010000C9434000C9434000C9434000C94340090
:100020000C9434000C9434000C9434000C94340080
:100030000C9434000C9434000C9434000C94340070
:100040000C9434000C9434000C9434000C94340060
:100050000C94340011241FBECFE5D8E0DEBFCDBF25
:100060000E945A040C94F9040C940000DF93CF937F
:1000700000D000D00F92CDB7DEB78A836B8382E0C9
:1000800089838A81843010F0198234C081E08983A9
:100090008A81282F30E03D832C838C819D818130A3
:1000A0009105D1F02C813D81223031052CF48C81D9
:1000B0009D81009761F01EC02C813D812230310569
:1000C00081F08C819D818330910581F013C0EAE33A
:1000D000F0E08B8180830EC0E7E3F0E08B818083CA
:1000E00009C0E4E3F0E08B81808304C0E1E3F0E049
:1000F0008B81808389810F900F900F900F900F90CC
:10010000CF91DF910895DF93CF93CDB7DEB72E97D0
:100110000FB6F894DEBF0FBECDBF8A836B834C83CE
:1001200082E089838B81883008F007C18C8182301E
:1001300008F000C18A81282F30E03E872D878D8509
:100140009E858130910509F44FC02D853E85223072
:1001500031052CF48D859E85009771F0EBC02D85BF
:100160003E852230310509F477C08D859E85833028
:10017000910509F4A9C0DEC08C81282F30E03C87AE
:100180002B878B859C850097D1F02B853C85213072
:10019000310509F0CFC0AAE3B0E0EAE3F0E08081E6
:1001A000482F8B81282F30E081E090E0022E02C0A2
:1001B000880F991F0A94E2F7842B8C93BBC0AAE3A3
:1001C000B0E0EAE3F0E08081482F8B81282F30E017
:1001D00081E090E0022E02C0880F991F0A94E2F796
:1001E000809584238C93A6C08C81282F30E03A8799
:1001F000298789859A850097D1F029853A8521300C
:10020000310509F097C0A7E3B0E0E7E3F0E08081B3
:10021000482F8B81282F30E081E090E0022E02C031
:10022000880F991F0A94E2F7842B8C9383C0A7E36D
:10023000B0E0E7E3F0E08081482F8B81282F30E0A9
:1002400081E090E0022E02C0880F991F0A94E2F725
:10025000809584238C936EC08C81282F30E0388762
:100260002F838F8198850097D1F02F813885213099
:10027000310509F05FC0A4E3B0E0E4E3F0E0808181
:10028000482F8B81282F30E081E090E0022E02C0C1
:10029000880F991F0A94E2F7842B8C934BC0A4E338
:1002A000B0E0E4E3F0E08081482F8B81282F30E03C
:1002B00081E090E0022E02C0880F991F0A94E2F7B5
:1002C000809584238C9336C08C81282F30E03E8328
:1002D0002D838D819E810097C9F02D813E81213033
:1002E000310541F5A1E3B0E0E1E3F0E08081482F82
:1002F0008B81282F30E081E090E0022E02C0880F31
:10030000991F0A94E2F7842B8C9314C0A1E3B0E008
:10031000E1E3F0E08081482F8B81282F30E081E0FD
:1003200090E0022E02C0880F991F0A94E2F7809590
:1003300084238C9381E0898301C0198289812E9660
:100340000FB6F894DEBF0FBECDBFCF91DF910895F9
:10035000DF93CF9300D000D00F92CDB7DEB78A8362
:100360006B8382E089838A81843010F0198234C0E3
:1003700081E089838A81282F30E03D832C838C8122
:100380009D8181309105D1F02C813D812230310554
:100390002CF48C819D81009761F01EC02C813D81E1
:1003A0002230310581F08C819D818330910581F06F
:1003B00013C0EBE3F0E08B8180830EC0E8E3F0E054
:1003C0008B81808309C0E5E3F0E08B81808304C0EA
:1003D000E2E3F0E08B81808389810F900F900F9092
:1003E0000F900F90CF91DF910895DF93CF93CDB70A
:1003F000DEB72E970FB6F894DEBF0FBECDBF8A834F
:100400006B834C8382E089838B81883008F007C13D
:100410008C81823008F000C18A81282F30E03E872D
:100420002D878D859E858130910509F44FC02D85DE
:100430003E85223031052CF48D859E85009771F024
:10044000EBC02D853E852230310509F477C08D85BE
:100450009E858330910509F4A9C0DEC08C81282FC8
:1004600030E03C872B878B859C850097D1F02B85CE
:100470003C852130310509F0CFC0ABE3B0E0EBE3C0
:10048000F0E08081482F8B81282F30E081E090E0E0
:10049000022E02C0880F991F0A94E2F7842B8C93D6
:1004A000BBC0ABE3B0E0EBE3F0E08081482F8B8191
:1004B000282F30E081E090E0022E02C0880F991FC3
:1004C0000A94E2F7809584238C93A6C08C81282F10
:1004D00030E03A87298789859A850097D1F0298568
:1004E0003A852130310509F097C0A8E3B0E0E8E390
:1004F000F0E08081482F8B81282F30E081E090E070
:10050000022E02C0880F991F0A94E2F7842B8C9365
:1005100083C0A8E3B0E0E8E3F0E08081482F8B815E
:10052000282F30E081E090E0022E02C0880F991F52
:100530000A94E2F7809584238C936EC08C81282FD7
:1005400030E038872F838F8198850097D1F02F81F5
:1005500038852130310509F05FC0A5E3B0E0E5E35F
:10056000F0E08081482F8B81282F30E081E090E0FF
:10057000022E02C0880F991F0A94E2F7842B8C93F5
:100580004BC0A5E3B0E0E5E3F0E08081482F8B812C
:10059000282F30E081E090E0022E02C0880F991FE2
:1005A0000A94E2F7809584238C9336C08C81282F9F
:1005B00030E03E832D838D819E810097C9F02D818F
:1005C0003E812130310541F5A2E3B0E0E2E3F0E005
:1005D0008081482F8B81282F30E081E090E0022E2F
:1005E00002C0880F991F0A94E2F7842B8C9314C0E1
:1005F000A2E3B0E0E2E3F0E08081482F8B81282F76
:1006000030E081E090E0022E02C0880F991F0A942A
:10061000E2F7809584238C9381E0898301C019825D
:1006200089812E960FB6F894DEBF0FBECDBFCF9155
:10063000DF910895DF93CF9300D000D000D0CDB7E5
:10064000DEB78A837C836B8382E089838A818430EE
:1006500010F019823CC081E089838A81282F30E024
:100660003E832D838D819E8181309105E1F02D8126
:100670003E81223031052CF48D819E81009761F0FE
:1006800026C02D813E8122303105A1F08D819E81D1
:1006900083309105B1F01BC0EBE3F0E08081EB818A
:1006A000FC81808314C0E8E3F0E08081EB81FC8171
:1006B00080830DC0E5E3F0E08081EB81FC818083E5
:1006C00006C0E2E3F0E08081EB81FC8180838981D8
:1006D00026960FB6F894DEBF0FBECDBFCF91DF9147
:1006E0000895DF93CF93CDB7DEB727970FB6F89471
:1006F000DEBF0FBECDBF8A836B835D834C8382E0F8
:1007000089838B81883008F073C08A81282F30E07C
:100710003F832E834E815F814130510559F18E8197
:100720009F818230910534F42E813F81211531055E
:1007300069F05BC04E815F814230510579F18E8155
:100740009F818330910509F43DC04FC0E7E2F0E09E
:100750008081282F30E08B81882F90E0A90102C092
:10076000559547958A95E2F7CA018170EC81FD8124
:1007700080833BC0E4E2F0E08081282F30E08B8171
:10078000882F90E0A90102C0559547958A95E2F718
:10079000CA018170EC81FD81808327C0E1E2F0E035
:1007A0008081282F30E08B81882F90E0A90102C042
:1007B000559547958A95E2F7CA018170EC81FD81D4
:1007C000808313C0EEE1F0E08081282F30E08B8140
:1007D000882F90E0A90102C0559547958A95E2F7C8
:1007E000CA018170EC81FD81808381E0898301C031
:1007F0001982898127960FB6F894DEBF0FBECDBF50
:10080000CF91DF910895DF93CF93CDB7DEB7AAE202
:10081000B0E0EAE2F0E080818B7F8C93AAE2B0E066
:10082000EAE2F0E0808188608C93AAE2B0E0EAE23C
:10083000F0E0808180618C93E0E4F0E086EA8083E0
:10084000E9E2F0E083E38083CF91DF910895DF93C5
:10085000CF93CDB7DEB783E060E040E00E94830035
:10086000EBE2F0E080818823DCF7ECE2F0E08081CD
:10087000CF91DF910895DF93CF930F92CDB7DEB77D
:10088000898383E061E041E00E948300EBE2F0E0D5
:100890008081829586958770882F90E08170907016
:1008A0000097A1F3ECE2F0E0898180830F90CF9173
:1008B000DF910895DF93CF930F92CDB7DEB70E94FB
:1008C000030480E06FEF0E9436000E9427048983B2
:1008D0008981813631F480E060E041E00E94F501D9
:1008E000F4CF8981823631F480E060E040E00E94FC
:1008F000F501EBCF8981833631F480E061E041E09E
:100900000E94F501E2CF8981843631F480E061E014
:1009100040E00E94F501D9CF8981853631F480E02D
:1009200062E041E00E94F501D0CF8981863631F442
:1009300080E062E040E00E94F501C7CF8981873600
:1009400031F480E063E041E00E94F501BECF89818F
:10095000883631F480E063E040E00E94F501B5CFD5
:100960008981893631F480E064E041E00E94F5013C
:10097000ACCF89818A3631F480E064E040E00E94A7
:10098000F501A3CF89818B3631F480E065E041E049
:100990000E94F5019ACF89818C3631F480E065E0C0
:1009A00040E00E94F50191CF89818D3631F480E0DD
:1009B00066E041E00E94F50188CF89818E3631F4EE
:1009C00080E066E040E00E94F5017FCF89818F36AC
:1009D00031F480E067E041E00E94F50176CF898143
:1009E000803709F072CF80E067E040E00E94F501B7
:0609F0006CCFF894FFCF6C
:00000001FF
